{
  "_format": "hh-sol-artifact-1",
  "contractName": "ArtAuthenticator",
  "sourceName": "contracts/ArtAuthenticator.sol",
  "abi": [
    {
      "inputs": [
        {
          "internalType": "address",
          "name": "_trustedSigner",
          "type": "address"
        }
      ],
      "stateMutability": "nonpayable",
      "type": "constructor"
    },
    {
      "inputs": [],
      "name": "ECDSAInvalidSignature",
      "type": "error"
    },
    {
      "inputs": [
        {
          "internalType": "uint256",
          "name": "length",
          "type": "uint256"
        }
      ],
      "name": "ECDSAInvalidSignatureLength",
      "type": "error"
    },
    {
      "inputs": [
        {
          "internalType": "bytes32",
          "name": "s",
          "type": "bytes32"
        }
      ],
      "name": "ECDSAInvalidSignatureS",
      "type": "error"
    },
    {
      "inputs": [
        {
          "internalType": "address",
          "name": "sender",
          "type": "address"
        },
        {
          "internalType": "uint256",
          "name": "tokenId",
          "type": "uint256"
        },
        {
          "internalType": "address",
          "name": "owner",
          "type": "address"
        }
      ],
      "name": "ERC721IncorrectOwner",
      "type": "error"
    },
    {
      "inputs": [
        {
          "internalType": "address",
          "name": "operator",
          "type": "address"
        },
        {
          "internalType": "uint256",
          "name": "tokenId",
          "type": "uint256"
        }
      ],
      "name": "ERC721InsufficientApproval",
      "type": "error"
    },
    {
      "inputs": [
        {
          "internalType": "address",
          "name": "approver",
          "type": "address"
        }
      ],
      "name": "ERC721InvalidApprover",
      "type": "error"
    },
    {
      "inputs": [
        {
          "internalType": "address",
          "name": "operator",
          "type": "address"
        }
      ],
      "name": "ERC721InvalidOperator",
      "type": "error"
    },
    {
      "inputs": [
        {
          "internalType": "address",
          "name": "owner",
          "type": "address"
        }
      ],
      "name": "ERC721InvalidOwner",
      "type": "error"
    },
    {
      "inputs": [
        {
          "internalType": "address",
          "name": "receiver",
          "type": "address"
        }
      ],
      "name": "ERC721InvalidReceiver",
      "type": "error"
    },
    {
      "inputs": [
        {
          "internalType": "address",
          "name": "sender",
          "type": "address"
        }
      ],
      "name": "ERC721InvalidSender",
      "type": "error"
    },
    {
      "inputs": [
        {
          "internalType": "uint256",
          "name": "tokenId",
          "type": "uint256"
        }
      ],
      "name": "ERC721NonexistentToken",
      "type": "error"
    },
    {
      "inputs": [
        {
          "internalType": "address",
          "name": "owner",
          "type": "address"
        }
      ],
      "name": "OwnableInvalidOwner",
      "type": "error"
    },
    {
      "inputs": [
        {
          "internalType": "address",
          "name": "account",
          "type": "address"
        }
      ],
      "name": "OwnableUnauthorizedAccount",
      "type": "error"
    },
    {
      "anonymous": false,
      "inputs": [
        {
          "indexed": true,
          "internalType": "address",
          "name": "owner",
          "type": "address"
        },
        {
          "indexed": true,
          "internalType": "address",
          "name": "approved",
          "type": "address"
        },
        {
          "indexed": true,
          "internalType": "uint256",
          "name": "tokenId",
          "type": "uint256"
        }
      ],
      "name": "Approval",
      "type": "event"
    },
    {
      "anonymous": false,
      "inputs": [
        {
          "indexed": true,
          "internalType": "address",
          "name": "owner",
          "type": "address"
        },
        {
          "indexed": true,
          "internalType": "address",
          "name": "operator",
          "type": "address"
        },
        {
          "indexed": false,
          "internalType": "bool",
          "name": "approved",
          "type": "bool"
        }
      ],
      "name": "ApprovalForAll",
      "type": "event"
    },
    {
      "anonymous": false,
      "inputs": [
        {
          "indexed": true,
          "internalType": "uint256",
          "name": "tokenId",
          "type": "uint256"
        },
        {
          "indexed": true,
          "internalType": "address",
          "name": "owner",
          "type": "address"
        },
        {
          "indexed": false,
          "internalType": "string",
          "name": "ipfsCid",
          "type": "string"
        },
        {
          "indexed": false,
          "internalType": "uint256",
          "name": "authenticityScore",
          "type": "uint256"
        }
      ],
      "name": "ArtMinted",
      "type": "event"
    },
    {
      "anonymous": false,
      "inputs": [
        {
          "indexed": true,
          "internalType": "address",
          "name": "previousOwner",
          "type": "address"
        },
        {
          "indexed": true,
          "internalType": "address",
          "name": "newOwner",
          "type": "address"
        }
      ],
      "name": "OwnershipTransferred",
      "type": "event"
    },
    {
      "anonymous": false,
      "inputs": [
        {
          "indexed": true,
          "internalType": "address",
          "name": "from",
          "type": "address"
        },
        {
          "indexed": true,
          "internalType": "address",
          "name": "to",
          "type": "address"
        },
        {
          "indexed": true,
          "internalType": "uint256",
          "name": "tokenId",
          "type": "uint256"
        }
      ],
      "name": "Transfer",
      "type": "event"
    },
    {
      "inputs": [
        {
          "internalType": "address",
          "name": "to",
          "type": "address"
        },
        {
          "internalType": "uint256",
          "name": "tokenId",
          "type": "uint256"
        }
      ],
      "name": "approve",
      "outputs": [],
      "stateMutability": "nonpayable",
      "type": "function"
    },
    {
      "inputs": [
        {
          "internalType": "uint256",
          "name": "",
          "type": "uint256"
        }
      ],
      "name": "artMetadata",
      "outputs": [
        {
          "internalType": "string",
          "name": "ipfsCid",
          "type": "string"
        },
        {
          "internalType": "uint256",
          "name": "authenticityScore",
          "type": "uint256"
        },
        {
          "internalType": "uint256",
          "name": "timestamp",
          "type": "uint256"
        }
      ],
      "stateMutability": "view",
      "type": "function"
    },
    {
      "inputs": [
        {
          "internalType": "address",
          "name": "owner",
          "type": "address"
        }
      ],
      "name": "balanceOf",
      "outputs": [
        {
          "internalType": "uint256",
          "name": "",
          "type": "uint256"
        }
      ],
      "stateMutability": "view",
      "type": "function"
    },
    {
      "inputs": [
        {
          "internalType": "uint256",
          "name": "tokenId",
          "type": "uint256"
        }
      ],
      "name": "getApproved",
      "outputs": [
        {
          "internalType": "address",
          "name": "",
          "type": "address"
        }
      ],
      "stateMutability": "view",
      "type": "function"
    },
    {
      "inputs": [
        {
          "internalType": "uint256",
          "name": "tokenId",
          "type": "uint256"
        }
      ],
      "name": "getTokenMetadata",
      "outputs": [
        {
          "components": [
            {
              "internalType": "string",
              "name": "ipfsCid",
              "type": "string"
            },
            {
              "internalType": "uint256",
              "name": "authenticityScore",
              "type": "uint256"
            },
            {
              "internalType": "uint256",
              "name": "timestamp",
              "type": "uint256"
            }
          ],
          "internalType": "struct ArtAuthenticator.ArtMetadata",
          "name": "",
          "type": "tuple"
        }
      ],
      "stateMutability": "view",
      "type": "function"
    },
    {
      "inputs": [
        {
          "internalType": "address",
          "name": "owner",
          "type": "address"
        },
        {
          "internalType": "address",
          "name": "operator",
          "type": "address"
        }
      ],
      "name": "isApprovedForAll",
      "outputs": [
        {
          "internalType": "bool",
          "name": "",
          "type": "bool"
        }
      ],
      "stateMutability": "view",
      "type": "function"
    },
    {
      "inputs": [
        {
          "internalType": "address",
          "name": "to",
          "type": "address"
        },
        {
          "internalType": "string",
          "name": "ipfsCid",
          "type": "string"
        },
        {
          "internalType": "uint256",
          "name": "authenticityScore",
          "type": "uint256"
        },
        {
          "internalType": "bytes",
          "name": "signature",
          "type": "bytes"
        }
      ],
      "name": "mintArt",
      "outputs": [],
      "stateMutability": "nonpayable",
      "type": "function"
    },
    {
      "inputs": [],
      "name": "name",
      "outputs": [
        {
          "internalType": "string",
          "name": "",
          "type": "string"
        }
      ],
      "stateMutability": "view",
      "type": "function"
    },
    {
      "inputs": [],
      "name": "owner",
      "outputs": [
        {
          "internalType": "address",
          "name": "",
          "type": "address"
        }
      ],
      "stateMutability": "view",
      "type": "function"
    },
    {
      "inputs": [
        {
          "internalType": "uint256",
          "name": "tokenId",
          "type": "uint256"
        }
      ],
      "name": "ownerOf",
      "outputs": [
        {
          "internalType": "address",
          "name": "",
          "type": "address"
        }
      ],
      "stateMutability": "view",
      "type": "function"
    },
    {
      "inputs": [],
      "name": "renounceOwnership",
      "outputs": [],
      "stateMutability": "nonpayable",
      "type": "function"
    },
    {
      "inputs": [
        {
          "internalType": "address",
          "name": "from",
          "type": "address"
        },
        {
          "internalType": "address",
          "name": "to",
          "type": "address"
        },
        {
          "internalType": "uint256",
          "name": "tokenId",
          "type": "uint256"
        }
      ],
      "name": "safeTransferFrom",
      "outputs": [],
      "stateMutability": "nonpayable",
      "type": "function"
    },
    {
      "inputs": [
        {
          "internalType": "address",
          "name": "from",
          "type": "address"
        },
        {
          "internalType": "address",
          "name": "to",
          "type": "address"
        },
        {
          "internalType": "uint256",
          "name": "tokenId",
          "type": "uint256"
        },
        {
          "internalType": "bytes",
          "name": "data",
          "type": "bytes"
        }
      ],
      "name": "safeTransferFrom",
      "outputs": [],
      "stateMutability": "nonpayable",
      "type": "function"
    },
    {
      "inputs": [
        {
          "internalType": "address",
          "name": "operator",
          "type": "address"
        },
        {
          "internalType": "bool",
          "name": "approved",
          "type": "bool"
        }
      ],
      "name": "setApprovalForAll",
      "outputs": [],
      "stateMutability": "nonpayable",
      "type": "function"
    },
    {
      "inputs": [
        {
          "internalType": "address",
          "name": "newSigner",
          "type": "address"
        }
      ],
      "name": "setTrustedSigner",
      "outputs": [],
      "stateMutability": "nonpayable",
      "type": "function"
    },
    {
      "inputs": [
        {
          "internalType": "bytes4",
          "name": "interfaceId",
          "type": "bytes4"
        }
      ],
      "name": "supportsInterface",
      "outputs": [
        {
          "internalType": "bool",
          "name": "",
          "type": "bool"
        }
      ],
      "stateMutability": "view",
      "type": "function"
    },
    {
      "inputs": [],
      "name": "symbol",
      "outputs": [
        {
          "internalType": "string",
          "name": "",
          "type": "string"
        }
      ],
      "stateMutability": "view",
      "type": "function"
    },
    {
      "inputs": [
        {
          "internalType": "uint256",
          "name": "tokenId",
          "type": "uint256"
        }
      ],
      "name": "tokenURI",
      "outputs": [
        {
          "internalType": "string",
          "name": "",
          "type": "string"
        }
      ],
      "stateMutability": "view",
      "type": "function"
    },
    {
      "inputs": [
        {
          "internalType": "address",
          "name": "from",
          "type": "address"
        },
        {
          "internalType": "address",
          "name": "to",
          "type": "address"
        },
        {
          "internalType": "uint256",
          "name": "tokenId",
          "type": "uint256"
        }
      ],
      "name": "transferFrom",
      "outputs": [],
      "stateMutability": "nonpayable",
      "type": "function"
    },
    {
      "inputs": [
        {
          "internalType": "address",
          "name": "newOwner",
          "type": "address"
        }
      ],
      "name": "transferOwnership",
      "outputs": [],
      "stateMutability": "nonpayable",
      "type": "function"
    },
    {
      "inputs": [],
      "name": "trustedSigner",
      "outputs": [
        {
          "internalType": "address",
          "name": "",
          "type": "address"
        }
      ],
      "stateMutability": "view",
      "type": "function"
    }
  ],
  "bytecode": "0x60806040523480156200001157600080fd5b50604051620035e8380380620035e88339818101604052810190620000379190620002d1565b336040518060400160405280600881526020017f41727469667941490000000000000000000000000000000000000000000000008152506040518060400160405280600581526020017f41525441490000000000000000000000000000000000000000000000000000008152508160009081620000b591906200057d565b508060019081620000c791906200057d565b505050600073ffffffffffffffffffffffffffffffffffffffff168173ffffffffffffffffffffffffffffffffffffffff16036200013f5760006040517f1e4fbdf700000000000000000000000000000000000000000000000000000000815260040162000136919062000675565b60405180910390fd5b6200015081620001a160201b60201c565b5080600760006101000a81548173ffffffffffffffffffffffffffffffffffffffff021916908373ffffffffffffffffffffffffffffffffffffffff16021790555060006008819055505062000692565b6000600660009054906101000a900473ffffffffffffffffffffffffffffffffffffffff16905081600660006101000a81548173ffffffffffffffffffffffffffffffffffffffff021916908373ffffffffffffffffffffffffffffffffffffffff1602179055508173ffffffffffffffffffffffffffffffffffffffff168173ffffffffffffffffffffffffffffffffffffffff167f8be0079c531659141344cd1fd0a4f28419497f9722a3daafe3b4186f6b6457e060405160405180910390a35050565b600080fd5b600073ffffffffffffffffffffffffffffffffffffffff82169050919050565b600062000299826200026c565b9050919050565b620002ab816200028c565b8114620002b757600080fd5b50565b600081519050620002cb81620002a0565b92915050565b600060208284031215620002ea57620002e962000267565b5b6000620002fa84828501620002ba565b91505092915050565b600081519050919050565b7f4e487b7100000000000000000000000000000000000000000000000000000000600052604160045260246000fd5b7f4e487b7100000000000000000000000000000000000000000000000000000000600052602260045260246000fd5b600060028204905060018216806200038557607f821691505b6020821081036200039b576200039a6200033d565b5b50919050565b60008190508160005260206000209050919050565b60006020601f8301049050919050565b600082821b905092915050565b600060088302620004057fffffffffffffffffffffffffffffffffffffffffffffffffffffffffffffffff82620003c6565b620004118683620003c6565b95508019841693508086168417925050509392505050565b6000819050919050565b6000819050919050565b60006200045e62000458620004528462000429565b62000433565b62000429565b9050919050565b6000819050919050565b6200047a836200043d565b62000492620004898262000465565b848454620003d3565b825550505050565b600090565b620004a96200049a565b620004b68184846200046f565b505050565b5b81811015620004de57620004d26000826200049f565b600181019050620004bc565b5050565b601f8211156200052d57620004f781620003a1565b6200050284620003b6565b8101602085101562000512578190505b6200052a6200052185620003b6565b830182620004bb565b50505b505050565b600082821c905092915050565b6000620005526000198460080262000532565b1980831691505092915050565b60006200056d83836200053f565b9150826002028217905092915050565b620005888262000303565b67ffffffffffffffff811115620005a457620005a36200030e565b5b620005b082546200036c565b620005bd828285620004e2565b600060209050601f831160018114620005f55760008415620005e0578287015190505b620005ec85826200055f565b8655506200065c565b601f1984166200060586620003a1565b60005b828110156200062f5784890151825560018201915060208501945060208101905062000608565b868310156200064f57848901516200064b601f8916826200053f565b8355505b6001600288020188555050505b505050505050565b6200066f816200028c565b82525050565b60006020820190506200068c600083018462000664565b92915050565b612f4680620006a26000396000f3fe608060405234801561001057600080fd5b50600436106101375760003560e01c8063715018a6116100b8578063b88d4fde1161007c578063b88d4fde14610338578063c87b56dd14610354578063e985e9c514610384578063f2fde38b146103b4578063f371da29146103d0578063f74d54801461040257610137565b8063715018a6146102ba57806372134927146102c45780638da5cb5b146102e057806395d89b41146102fe578063a22cb4651461031c57610137565b806342842e0e116100ff57806342842e0e146101f257806356a1c7011461020e578063603168011461022a5780636352211e1461025a57806370a082311461028a57610137565b806301ffc9a71461013c57806306fdde031461016c578063081812fc1461018a578063095ea7b3146101ba57806323b872dd146101d6575b600080fd5b61015660048036038101906101519190612064565b610420565b60405161016391906120ac565b60405180910390f35b610174610502565b6040516101819190612157565b60405180910390f35b6101a4600480360381019061019f91906121af565b610594565b6040516101b1919061221d565b60405180910390f35b6101d460048036038101906101cf9190612264565b6105b0565b005b6101f060048036038101906101eb91906122a4565b6105c6565b005b61020c600480360381019061020791906122a4565b6106c8565b005b610228600480360381019061022391906122f7565b6106e8565b005b610244600480360381019061023f91906121af565b610734565b60405161025191906123cd565b60405180910390f35b610274600480360381019061026f91906121af565b610807565b604051610281919061221d565b60405180910390f35b6102a4600480360381019061029f91906122f7565b610819565b6040516102b191906123fe565b60405180910390f35b6102c26108d3565b005b6102de60048036038101906102d991906125ef565b6108e7565b005b6102e8610aa5565b6040516102f5919061221d565b60405180910390f35b610306610acf565b6040516103139190612157565b60405180910390f35b610336600480360381019061033191906126ba565b610b61565b005b610352600480360381019061034d91906126fa565b610b77565b005b61036e600480360381019061036991906121af565b610b9c565b60405161037b9190612157565b60405180910390f35b61039e6004803603810190610399919061277d565b610c05565b6040516103ab91906120ac565b60405180910390f35b6103ce60048036038101906103c991906122f7565b610c99565b005b6103ea60048036038101906103e591906121af565b610d1f565b6040516103f9939291906127bd565b60405180910390f35b61040a610dd1565b604051610417919061221d565b60405180910390f35b60007f80ac58cd000000000000000000000000000000000000000000000000000000007bffffffffffffffffffffffffffffffffffffffffffffffffffffffff1916827bffffffffffffffffffffffffffffffffffffffffffffffffffffffff191614806104eb57507f5b5e139f000000000000000000000000000000000000000000000000000000007bffffffffffffffffffffffffffffffffffffffffffffffffffffffff1916827bffffffffffffffffffffffffffffffffffffffffffffffffffffffff1916145b806104fb57506104fa82610df7565b5b9050919050565b6060600080546105119061282a565b80601f016020809104026020016040519081016040528092919081815260200182805461053d9061282a565b801561058a5780601f1061055f5761010080835404028352916020019161058a565b820191906000526020600020905b81548152906001019060200180831161056d57829003601f168201915b5050505050905090565b600061059f82610e61565b506105a982610ee9565b9050919050565b6105c282826105bd610f26565b610f2e565b5050565b600073ffffffffffffffffffffffffffffffffffffffff168273ffffffffffffffffffffffffffffffffffffffff16036106385760006040517f64a0ae9200000000000000000000000000000000000000000000000000000000815260040161062f919061221d565b60405180910390fd5b600061064c8383610647610f26565b610f40565b90508373ffffffffffffffffffffffffffffffffffffffff168173ffffffffffffffffffffffffffffffffffffffff16146106c2578382826040517f64283d7b0000000000000000000000000000000000000000000000000000000081526004016106b99392919061285b565b60405180910390fd5b50505050565b6106e383838360405180602001604052806000815250610b77565b505050565b6106f061115a565b80600760006101000a81548173ffffffffffffffffffffffffffffffffffffffff021916908373ffffffffffffffffffffffffffffffffffffffff16021790555050565b61073c611fd7565b6009600083815260200190815260200160002060405180606001604052908160008201805461076a9061282a565b80601f01602080910402602001604051908101604052809291908181526020018280546107969061282a565b80156107e35780601f106107b8576101008083540402835291602001916107e3565b820191906000526020600020905b8154815290600101906020018083116107c657829003601f168201915b50505050508152602001600182015481526020016002820154815250509050919050565b600061081282610e61565b9050919050565b60008073ffffffffffffffffffffffffffffffffffffffff168273ffffffffffffffffffffffffffffffffffffffff160361088c5760006040517f89c62b64000000000000000000000000000000000000000000000000000000008152600401610883919061221d565b60405180910390fd5b600360008373ffffffffffffffffffffffffffffffffffffffff1673ffffffffffffffffffffffffffffffffffffffff168152602001908152602001600020549050919050565b6108db61115a565b6108e560006111e1565b565b60008484846040516020016108fe93929190612937565b6040516020818303038152906040528051906020012090506000610921826112a7565b9050600760009054906101000a900473ffffffffffffffffffffffffffffffffffffffff1673ffffffffffffffffffffffffffffffffffffffff1661096f84836112dd90919063ffffffff16565b73ffffffffffffffffffffffffffffffffffffffff16146109c5576040517f08c379a00000000000000000000000000000000000000000000000000000000081526004016109bc906129bc565b60405180910390fd5b600060085490506001600860008282546109df9190612a0b565b925050819055506109f08782611309565b604051806060016040528087815260200186815260200142815250600960008381526020019081526020016000206000820151816000019081610a339190612beb565b5060208201518160010155604082015181600201559050508673ffffffffffffffffffffffffffffffffffffffff16817fac70abee5ececaa6d389daffaf4d3ebd6823e24a815dddd15106e28c5eb6088e8888604051610a94929190612cbd565b60405180910390a350505050505050565b6000600660009054906101000a900473ffffffffffffffffffffffffffffffffffffffff16905090565b606060018054610ade9061282a565b80601f0160208091040260200160405190810160405280929190818152602001828054610b0a9061282a565b8015610b575780601f10610b2c57610100808354040283529160200191610b57565b820191906000526020600020905b815481529060010190602001808311610b3a57829003601f168201915b5050505050905090565b610b73610b6c610f26565b8383611327565b5050565b610b828484846105c6565b610b96610b8d610f26565b85858585611496565b50505050565b6060610ba782610e61565b506000610bb2611647565b90506000815111610bd25760405180602001604052806000815250610bfd565b80610bdc8461165e565b604051602001610bed929190612ced565b6040516020818303038152906040525b915050919050565b6000600560008473ffffffffffffffffffffffffffffffffffffffff1673ffffffffffffffffffffffffffffffffffffffff16815260200190815260200160002060008373ffffffffffffffffffffffffffffffffffffffff1673ffffffffffffffffffffffffffffffffffffffff16815260200190815260200160002060009054906101000a900460ff16905092915050565b610ca161115a565b600073ffffffffffffffffffffffffffffffffffffffff168173ffffffffffffffffffffffffffffffffffffffff1603610d135760006040517f1e4fbdf7000000000000000000000000000000000000000000000000000000008152600401610d0a919061221d565b60405180910390fd5b610d1c816111e1565b50565b6009602052806000526040600020600091509050806000018054610d429061282a565b80601f0160208091040260200160405190810160405280929190818152602001828054610d6e9061282a565b8015610dbb5780601f10610d9057610100808354040283529160200191610dbb565b820191906000526020600020905b815481529060010190602001808311610d9e57829003601f168201915b5050505050908060010154908060020154905083565b600760009054906101000a900473ffffffffffffffffffffffffffffffffffffffff1681565b60007f01ffc9a7000000000000000000000000000000000000000000000000000000007bffffffffffffffffffffffffffffffffffffffffffffffffffffffff1916827bffffffffffffffffffffffffffffffffffffffffffffffffffffffff1916149050919050565b600080610e6d8361172c565b9050600073ffffffffffffffffffffffffffffffffffffffff168173ffffffffffffffffffffffffffffffffffffffff1603610ee057826040517f7e273289000000000000000000000000000000000000000000000000000000008152600401610ed791906123fe565b60405180910390fd5b80915050919050565b60006004600083815260200190815260200160002060009054906101000a900473ffffffffffffffffffffffffffffffffffffffff169050919050565b600033905090565b610f3b8383836001611769565b505050565b600080610f4c8461172c565b9050600073ffffffffffffffffffffffffffffffffffffffff168373ffffffffffffffffffffffffffffffffffffffff1614610f8e57610f8d81848661192e565b5b600073ffffffffffffffffffffffffffffffffffffffff168173ffffffffffffffffffffffffffffffffffffffff161461101f57610fd0600085600080611769565b6001600360008373ffffffffffffffffffffffffffffffffffffffff1673ffffffffffffffffffffffffffffffffffffffff168152602001908152602001600020600082825403925050819055505b600073ffffffffffffffffffffffffffffffffffffffff168573ffffffffffffffffffffffffffffffffffffffff16146110a2576001600360008773ffffffffffffffffffffffffffffffffffffffff1673ffffffffffffffffffffffffffffffffffffffff168152602001908152602001600020600082825401925050819055505b846002600086815260200190815260200160002060006101000a81548173ffffffffffffffffffffffffffffffffffffffff021916908373ffffffffffffffffffffffffffffffffffffffff160217905550838573ffffffffffffffffffffffffffffffffffffffff168273ffffffffffffffffffffffffffffffffffffffff167fddf252ad1be2c89b69c2b068fc378daa952ba7f163c4a11628f55a4df523b3ef60405160405180910390a4809150509392505050565b611162610f26565b73ffffffffffffffffffffffffffffffffffffffff16611180610aa5565b73ffffffffffffffffffffffffffffffffffffffff16146111df576111a3610f26565b6040517f118cdaa70000000000000000000000000000000000000000000000000000000081526004016111d6919061221d565b60405180910390fd5b565b6000600660009054906101000a900473ffffffffffffffffffffffffffffffffffffffff16905081600660006101000a81548173ffffffffffffffffffffffffffffffffffffffff021916908373ffffffffffffffffffffffffffffffffffffffff1602179055508173ffffffffffffffffffffffffffffffffffffffff168173ffffffffffffffffffffffffffffffffffffffff167f8be0079c531659141344cd1fd0a4f28419497f9722a3daafe3b4186f6b6457e060405160405180910390a35050565b60007f19457468657265756d205369676e6564204d6573736167653a0a33320000000060005281601c52603c6000209050919050565b6000806000806112ed86866119f2565b9250925092506112fd8282611a4e565b82935050505092915050565b611323828260405180602001604052806000815250611bb2565b5050565b600073ffffffffffffffffffffffffffffffffffffffff168273ffffffffffffffffffffffffffffffffffffffff160361139857816040517f5b08ba1800000000000000000000000000000000000000000000000000000000815260040161138f919061221d565b60405180910390fd5b80600560008573ffffffffffffffffffffffffffffffffffffffff1673ffffffffffffffffffffffffffffffffffffffff16815260200190815260200160002060008473ffffffffffffffffffffffffffffffffffffffff1673ffffffffffffffffffffffffffffffffffffffff16815260200190815260200160002060006101000a81548160ff0219169083151502179055508173ffffffffffffffffffffffffffffffffffffffff168373ffffffffffffffffffffffffffffffffffffffff167f17307eab39ab6107e8899845ad3d59bd9653f200f220920489ca2b5937696c318360405161148991906120ac565b60405180910390a3505050565b60008373ffffffffffffffffffffffffffffffffffffffff163b1115611640578273ffffffffffffffffffffffffffffffffffffffff1663150b7a02868685856040518563ffffffff1660e01b81526004016114f59493929190612d66565b6020604051808303816000875af192505050801561153157506040513d601f19601f8201168201806040525081019061152e9190612dc7565b60015b6115b5573d8060008114611561576040519150601f19603f3d011682016040523d82523d6000602084013e611566565b606091505b5060008151036115ad57836040517f64a0ae920000000000000000000000000000000000000000000000000000000081526004016115a4919061221d565b60405180910390fd5b805160208201fd5b63150b7a0260e01b7bffffffffffffffffffffffffffffffffffffffffffffffffffffffff1916817bffffffffffffffffffffffffffffffffffffffffffffffffffffffff19161461163e57836040517f64a0ae92000000000000000000000000000000000000000000000000000000008152600401611635919061221d565b60405180910390fd5b505b5050505050565b606060405180602001604052806000815250905090565b60606000600161166d84611bd6565b01905060008167ffffffffffffffff81111561168c5761168b612423565b5b6040519080825280601f01601f1916602001820160405280156116be5781602001600182028036833780820191505090505b509050600082602083010190505b600115611721578080600190039150507f3031323334353637383961626364656600000000000000000000000000000000600a86061a8153600a858161171557611714612df4565b5b049450600085036116cc575b819350505050919050565b60006002600083815260200190815260200160002060009054906101000a900473ffffffffffffffffffffffffffffffffffffffff169050919050565b80806117a25750600073ffffffffffffffffffffffffffffffffffffffff168273ffffffffffffffffffffffffffffffffffffffff1614155b156118d65760006117b284610e61565b9050600073ffffffffffffffffffffffffffffffffffffffff168373ffffffffffffffffffffffffffffffffffffffff161415801561181d57508273ffffffffffffffffffffffffffffffffffffffff168173ffffffffffffffffffffffffffffffffffffffff1614155b8015611830575061182e8184610c05565b155b1561187257826040517fa9fbf51f000000000000000000000000000000000000000000000000000000008152600401611869919061221d565b60405180910390fd5b81156118d457838573ffffffffffffffffffffffffffffffffffffffff168273ffffffffffffffffffffffffffffffffffffffff167f8c5be1e5ebec7d5bd14f71427d1e84f3dd0314c0f7b2291e5b200ac8c7c3b92560405160405180910390a45b505b836004600085815260200190815260200160002060006101000a81548173ffffffffffffffffffffffffffffffffffffffff021916908373ffffffffffffffffffffffffffffffffffffffff16021790555050505050565b611939838383611d29565b6119ed57600073ffffffffffffffffffffffffffffffffffffffff168373ffffffffffffffffffffffffffffffffffffffff16036119ae57806040517f7e2732890000000000000000000000000000000000000000000000000000000081526004016119a591906123fe565b60405180910390fd5b81816040517f177e802f0000000000000000000000000000000000000000000000000000000081526004016119e4929190612e23565b60405180910390fd5b505050565b60008060006041845103611a375760008060006020870151925060408701519150606087015160001a9050611a2988828585611dea565b955095509550505050611a47565b60006002855160001b9250925092505b9250925092565b60006003811115611a6257611a61612e4c565b5b826003811115611a7557611a74612e4c565b5b0315611bae5760016003811115611a8f57611a8e612e4c565b5b826003811115611aa257611aa1612e4c565b5b03611ad9576040517ff645eedf00000000000000000000000000000000000000000000000000000000815260040160405180910390fd5b60026003811115611aed57611aec612e4c565b5b826003811115611b0057611aff612e4c565b5b03611b45578060001c6040517ffce698f7000000000000000000000000000000000000000000000000000000008152600401611b3c91906123fe565b60405180910390fd5b600380811115611b5857611b57612e4c565b5b826003811115611b6b57611b6a612e4c565b5b03611bad57806040517fd78bce0c000000000000000000000000000000000000000000000000000000008152600401611ba49190612e94565b60405180910390fd5b5b5050565b611bbc8383611ede565b611bd1611bc7610f26565b6000858585611496565b505050565b600080600090507a184f03e93ff9f4daa797ed6e38ed64bf6a1f0100000000000000008310611c34577a184f03e93ff9f4daa797ed6e38ed64bf6a1f0100000000000000008381611c2a57611c29612df4565b5b0492506040810190505b6d04ee2d6d415b85acef81000000008310611c71576d04ee2d6d415b85acef81000000008381611c6757611c66612df4565b5b0492506020810190505b662386f26fc100008310611ca057662386f26fc100008381611c9657611c95612df4565b5b0492506010810190505b6305f5e1008310611cc9576305f5e1008381611cbf57611cbe612df4565b5b0492506008810190505b6127108310611cee576127108381611ce457611ce3612df4565b5b0492506004810190505b60648310611d115760648381611d0757611d06612df4565b5b0492506002810190505b600a8310611d20576001810190505b80915050919050565b60008073ffffffffffffffffffffffffffffffffffffffff168373ffffffffffffffffffffffffffffffffffffffff1614158015611de157508273ffffffffffffffffffffffffffffffffffffffff168473ffffffffffffffffffffffffffffffffffffffff161480611da25750611da18484610c05565b5b80611de057508273ffffffffffffffffffffffffffffffffffffffff16611dc883610ee9565b73ffffffffffffffffffffffffffffffffffffffff16145b5b90509392505050565b60008060007f7fffffffffffffffffffffffffffffff5d576e7357a4501ddfe92f46681b20a08460001c1115611e2a576000600385925092509250611ed4565b600060018888888860405160008152602001604052604051611e4f9493929190612ecb565b6020604051602081039080840390855afa158015611e71573d6000803e3d6000fd5b505050602060405103519050600073ffffffffffffffffffffffffffffffffffffffff168173ffffffffffffffffffffffffffffffffffffffff1603611ec557600060016000801b93509350935050611ed4565b8060008060001b935093509350505b9450945094915050565b600073ffffffffffffffffffffffffffffffffffffffff168273ffffffffffffffffffffffffffffffffffffffff1603611f505760006040517f64a0ae92000000000000000000000000000000000000000000000000000000008152600401611f47919061221d565b60405180910390fd5b6000611f5e83836000610f40565b9050600073ffffffffffffffffffffffffffffffffffffffff168173ffffffffffffffffffffffffffffffffffffffff1614611fd25760006040517f73c6ac6e000000000000000000000000000000000000000000000000000000008152600401611fc9919061221d565b60405180910390fd5b505050565b60405180606001604052806060815260200160008152602001600081525090565b6000604051905090565b600080fd5b600080fd5b60007fffffffff0000000000000000000000000000000000000000000000000000000082169050919050565b6120418161200c565b811461204c57600080fd5b50565b60008135905061205e81612038565b92915050565b60006020828403121561207a57612079612002565b5b60006120888482850161204f565b91505092915050565b60008115159050919050565b6120a681612091565b82525050565b60006020820190506120c1600083018461209d565b92915050565b600081519050919050565b600082825260208201905092915050565b60005b838110156121015780820151818401526020810190506120e6565b60008484015250505050565b6000601f19601f8301169050919050565b6000612129826120c7565b61213381856120d2565b93506121438185602086016120e3565b61214c8161210d565b840191505092915050565b60006020820190508181036000830152612171818461211e565b905092915050565b6000819050919050565b61218c81612179565b811461219757600080fd5b50565b6000813590506121a981612183565b92915050565b6000602082840312156121c5576121c4612002565b5b60006121d38482850161219a565b91505092915050565b600073ffffffffffffffffffffffffffffffffffffffff82169050919050565b6000612207826121dc565b9050919050565b612217816121fc565b82525050565b6000602082019050612232600083018461220e565b92915050565b612241816121fc565b811461224c57600080fd5b50565b60008135905061225e81612238565b92915050565b6000806040838503121561227b5761227a612002565b5b60006122898582860161224f565b925050602061229a8582860161219a565b9150509250929050565b6000806000606084860312156122bd576122bc612002565b5b60006122cb8682870161224f565b93505060206122dc8682870161224f565b92505060406122ed8682870161219a565b9150509250925092565b60006020828403121561230d5761230c612002565b5b600061231b8482850161224f565b91505092915050565b600082825260208201905092915050565b6000612340826120c7565b61234a8185612324565b935061235a8185602086016120e3565b6123638161210d565b840191505092915050565b61237781612179565b82525050565b6000606083016000830151848203600086015261239a8282612335565b91505060208301516123af602086018261236e565b5060408301516123c2604086018261236e565b508091505092915050565b600060208201905081810360008301526123e7818461237d565b905092915050565b6123f881612179565b82525050565b600060208201905061241360008301846123ef565b92915050565b600080fd5b600080fd5b7f4e487b7100000000000000000000000000000000000000000000000000000000600052604160045260246000fd5b61245b8261210d565b810181811067ffffffffffffffff8211171561247a57612479612423565b5b80604052505050565b600061248d611ff8565b90506124998282612452565b919050565b600067ffffffffffffffff8211156124b9576124b8612423565b5b6124c28261210d565b9050602081019050919050565b82818337600083830152505050565b60006124f16124ec8461249e565b612483565b90508281526020810184848401111561250d5761250c61241e565b5b6125188482856124cf565b509392505050565b600082601f83011261253557612534612419565b5b81356125458482602086016124de565b91505092915050565b600067ffffffffffffffff82111561256957612568612423565b5b6125728261210d565b9050602081019050919050565b600061259261258d8461254e565b612483565b9050828152602081018484840111156125ae576125ad61241e565b5b6125b98482856124cf565b509392505050565b600082601f8301126125d6576125d5612419565b5b81356125e684826020860161257f565b91505092915050565b6000806000806080858703121561260957612608612002565b5b60006126178782880161224f565b945050602085013567ffffffffffffffff81111561263857612637612007565b5b61264487828801612520565b93505060406126558782880161219a565b925050606085013567ffffffffffffffff81111561267657612675612007565b5b612682878288016125c1565b91505092959194509250565b61269781612091565b81146126a257600080fd5b50565b6000813590506126b48161268e565b92915050565b600080604083850312156126d1576126d0612002565b5b60006126df8582860161224f565b92505060206126f0858286016126a5565b9150509250929050565b6000806000806080858703121561271457612713612002565b5b60006127228782880161224f565b94505060206127338782880161224f565b93505060406127448782880161219a565b925050606085013567ffffffffffffffff81111561276557612764612007565b5b612771878288016125c1565b91505092959194509250565b6000806040838503121561279457612793612002565b5b60006127a28582860161224f565b92505060206127b38582860161224f565b9150509250929050565b600060608201905081810360008301526127d7818661211e565b90506127e660208301856123ef565b6127f360408301846123ef565b949350505050565b7f4e487b7100000000000000000000000000000000000000000000000000000000600052602260045260246000fd5b6000600282049050600182168061284257607f821691505b602082108103612855576128546127fb565b5b50919050565b6000606082019050612870600083018661220e565b61287d60208301856123ef565b61288a604083018461220e565b949350505050565b60008160601b9050919050565b60006128aa82612892565b9050919050565b60006128bc8261289f565b9050919050565b6128d46128cf826121fc565b6128b1565b82525050565b600081905092915050565b60006128f0826120c7565b6128fa81856128da565b935061290a8185602086016120e3565b80840191505092915050565b6000819050919050565b61293161292c82612179565b612916565b82525050565b600061294382866128c3565b60148201915061295382856128e5565b915061295f8284612920565b602082019150819050949350505050565b7f496e76616c6964207369676e6174757265000000000000000000000000000000600082015250565b60006129a66011836120d2565b91506129b182612970565b602082019050919050565b600060208201905081810360008301526129d581612999565b9050919050565b7f4e487b7100000000000000000000000000000000000000000000000000000000600052601160045260246000fd5b6000612a1682612179565b9150612a2183612179565b9250828201905080821115612a3957612a386129dc565b5b92915050565b60008190508160005260206000209050919050565b60006020601f8301049050919050565b600082821b905092915050565b600060088302612aa17fffffffffffffffffffffffffffffffffffffffffffffffffffffffffffffffff82612a64565b612aab8683612a64565b95508019841693508086168417925050509392505050565b6000819050919050565b6000612ae8612ae3612ade84612179565b612ac3565b612179565b9050919050565b6000819050919050565b612b0283612acd565b612b16612b0e82612aef565b848454612a71565b825550505050565b600090565b612b2b612b1e565b612b36818484612af9565b505050565b5b81811015612b5a57612b4f600082612b23565b600181019050612b3c565b5050565b601f821115612b9f57612b7081612a3f565b612b7984612a54565b81016020851015612b88578190505b612b9c612b9485612a54565b830182612b3b565b50505b505050565b600082821c905092915050565b6000612bc260001984600802612ba4565b1980831691505092915050565b6000612bdb8383612bb1565b9150826002028217905092915050565b612bf4826120c7565b67ffffffffffffffff811115612c0d57612c0c612423565b5b612c17825461282a565b612c22828285612b5e565b600060209050601f831160018114612c555760008415612c43578287015190505b612c4d8582612bcf565b865550612cb5565b601f198416612c6386612a3f565b60005b82811015612c8b57848901518255600182019150602085019450602081019050612c66565b86831015612ca85784890151612ca4601f891682612bb1565b8355505b6001600288020188555050505b505050505050565b60006040820190508181036000830152612cd7818561211e565b9050612ce660208301846123ef565b9392505050565b6000612cf982856128e5565b9150612d0582846128e5565b91508190509392505050565b600081519050919050565b600082825260208201905092915050565b6000612d3882612d11565b612d428185612d1c565b9350612d528185602086016120e3565b612d5b8161210d565b840191505092915050565b6000608082019050612d7b600083018761220e565b612d88602083018661220e565b612d9560408301856123ef565b8181036060830152612da78184612d2d565b905095945050505050565b600081519050612dc181612038565b92915050565b600060208284031215612ddd57612ddc612002565b5b6000612deb84828501612db2565b91505092915050565b7f4e487b7100000000000000000000000000000000000000000000000000000000600052601260045260246000fd5b6000604082019050612e38600083018561220e565b612e4560208301846123ef565b9392505050565b7f4e487b7100000000000000000000000000000000000000000000000000000000600052602160045260246000fd5b6000819050919050565b612e8e81612e7b565b82525050565b6000602082019050612ea96000830184612e85565b92915050565b600060ff82169050919050565b612ec581612eaf565b82525050565b6000608082019050612ee06000830187612e85565b612eed6020830186612ebc565b612efa6040830185612e85565b612f076060830184612e85565b9594505050505056fea2646970667358221220f9c6b66993915b6e0f77d100c7f7b6a5998610771f0b63dd66ac13aadf23341064736f6c63430008140033",
  "linkReferences": {},
  "deployedLinkReferences": {}
}